{
  "contractName": "DappTokenSale",
  "abi": [
    {
      "inputs": [
        {
          "internalType": "contract DappToken",
          "name": "_tokenContract",
          "type": "address"
        },
        {
          "internalType": "uint256",
          "name": "_tokenPrice",
          "type": "uint256"
        }
      ],
      "stateMutability": "nonpayable",
      "type": "constructor"
    },
    {
      "anonymous": false,
      "inputs": [
        {
          "indexed": false,
          "internalType": "address",
          "name": "_buyer",
          "type": "address"
        },
        {
          "indexed": false,
          "internalType": "uint256",
          "name": "_amount",
          "type": "uint256"
        }
      ],
      "name": "Sell",
      "type": "event"
    },
    {
      "inputs": [],
      "name": "admin",
      "outputs": [
        {
          "internalType": "address",
          "name": "",
          "type": "address"
        }
      ],
      "stateMutability": "view",
      "type": "function",
      "constant": true
    },
    {
      "inputs": [],
      "name": "tokenContract",
      "outputs": [
        {
          "internalType": "contract DappToken",
          "name": "",
          "type": "address"
        }
      ],
      "stateMutability": "view",
      "type": "function",
      "constant": true
    },
    {
      "inputs": [],
      "name": "tokenPrice",
      "outputs": [
        {
          "internalType": "uint256",
          "name": "",
          "type": "uint256"
        }
      ],
      "stateMutability": "view",
      "type": "function",
      "constant": true
    },
    {
      "inputs": [],
      "name": "tokensSold",
      "outputs": [
        {
          "internalType": "uint256",
          "name": "",
          "type": "uint256"
        }
      ],
      "stateMutability": "view",
      "type": "function",
      "constant": true
    },
    {
      "inputs": [
        {
          "internalType": "uint256",
          "name": "_numberOfTokens",
          "type": "uint256"
        }
      ],
      "name": "buyTokens",
      "outputs": [],
      "stateMutability": "payable",
      "type": "function",
      "payable": true
    },
    {
      "inputs": [],
      "name": "endSale",
      "outputs": [],
      "stateMutability": "nonpayable",
      "type": "function"
    }
  ],
  "bytecode": "0x608060405234801561001057600080fd5b5060405162000bb838038062000bb8833981810160405281019061003491906100ed565b336000806101000a81548173ffffffffffffffffffffffffffffffffffffffff021916908373ffffffffffffffffffffffffffffffffffffffff16021790555081600360006101000a81548173ffffffffffffffffffffffffffffffffffffffff021916908373ffffffffffffffffffffffffffffffffffffffff1602179055508060018190555050506101ae565b6000815190506100d281610180565b92915050565b6000815190506100e781610197565b92915050565b600080604083850312156101045761010361017b565b5b6000610112858286016100c3565b9250506020610123858286016100d8565b9150509250929050565b600061013882610151565b9050919050565b600061014a8261012d565b9050919050565b600073ffffffffffffffffffffffffffffffffffffffff82169050919050565b6000819050919050565b600080fd5b6101898161013f565b811461019457600080fd5b50565b6101a081610171565b81146101ab57600080fd5b50565b6109fa80620001be6000396000f3fe6080604052600436106100555760003560e01c80633610724e1461005a578063380d831b14610076578063518ab2a81461008d57806355a373d6146100b85780637ff9b596146100e3578063f851a4401461010e575b600080fd5b610074600480360381019061006f9190610656565b610139565b005b34801561008257600080fd5b5061008b610314565b005b34801561009957600080fd5b506100a2610527565b6040516100af919061077f565b60405180910390f35b3480156100c457600080fd5b506100cd61052d565b6040516100da9190610744565b60405180910390f35b3480156100ef57600080fd5b506100f8610553565b604051610105919061077f565b60405180910390f35b34801561011a57600080fd5b50610123610559565b6040516101309190610700565b60405180910390f35b6101458160015461057d565b341461015057600080fd5b80600360009054906101000a900473ffffffffffffffffffffffffffffffffffffffff1673ffffffffffffffffffffffffffffffffffffffff166370a08231306040518263ffffffff1660e01b81526004016101ac9190610700565b60206040518083038186803b1580156101c457600080fd5b505afa1580156101d8573d6000803e3d6000fd5b505050506040513d601f19601f820116820180604052508101906101fc9190610683565b101561020757600080fd5b600360009054906101000a900473ffffffffffffffffffffffffffffffffffffffff1673ffffffffffffffffffffffffffffffffffffffff1663a9059cbb33836040518363ffffffff1660e01b815260040161026492919061071b565b602060405180830381600087803b15801561027e57600080fd5b505af1158015610292573d6000803e3d6000fd5b505050506040513d601f19601f820116820180604052508101906102b69190610629565b6102bf57600080fd5b80600260008282546102d191906107ab565b925050819055507f5e5e995ce3133561afceaa51a9a154d5db228cd7525d34df5185582c18d3df09338260405161030992919061071b565b60405180910390a150565b60008054906101000a900473ffffffffffffffffffffffffffffffffffffffff1673ffffffffffffffffffffffffffffffffffffffff163373ffffffffffffffffffffffffffffffffffffffff161461036c57600080fd5b600360009054906101000a900473ffffffffffffffffffffffffffffffffffffffff1673ffffffffffffffffffffffffffffffffffffffff1663a9059cbb60008054906101000a900473ffffffffffffffffffffffffffffffffffffffff16600360009054906101000a900473ffffffffffffffffffffffffffffffffffffffff1673ffffffffffffffffffffffffffffffffffffffff166370a08231306040518263ffffffff1660e01b81526004016104269190610700565b60206040518083038186803b15801561043e57600080fd5b505afa158015610452573d6000803e3d6000fd5b505050506040513d601f19601f820116820180604052508101906104769190610683565b6040518363ffffffff1660e01b815260040161049392919061071b565b602060405180830381600087803b1580156104ad57600080fd5b505af11580156104c1573d6000803e3d6000fd5b505050506040513d601f19601f820116820180604052508101906104e59190610629565b6104ee57600080fd5b60008054906101000a900473ffffffffffffffffffffffffffffffffffffffff1673ffffffffffffffffffffffffffffffffffffffff16ff5b60025481565b600360009054906101000a900473ffffffffffffffffffffffffffffffffffffffff1681565b60015481565b60008054906101000a900473ffffffffffffffffffffffffffffffffffffffff1681565b6000808214806105a55750828283856105969190610832565b9250826105a39190610801565b145b6105e4576040517f08c379a00000000000000000000000000000000000000000000000000000000081526004016105db9061075f565b60405180910390fd5b92915050565b6000815190506105f981610996565b92915050565b60008135905061060e816109ad565b92915050565b600081519050610623816109ad565b92915050565b60006020828403121561063f5761063e610968565b5b600061064d848285016105ea565b91505092915050565b60006020828403121561066c5761066b610968565b5b600061067a848285016105ff565b91505092915050565b60006020828403121561069957610698610968565b5b60006106a784828501610614565b91505092915050565b6106b98161088c565b82525050565b6106c8816108d4565b82525050565b60006106db60148361079a565b91506106e68261096d565b602082019050919050565b6106fa816108ca565b82525050565b600060208201905061071560008301846106b0565b92915050565b600060408201905061073060008301856106b0565b61073d60208301846106f1565b9392505050565b600060208201905061075960008301846106bf565b92915050565b60006020820190508181036000830152610778816106ce565b9050919050565b600060208201905061079460008301846106f1565b92915050565b600082825260208201905092915050565b60006107b6826108ca565b91506107c1836108ca565b9250827fffffffffffffffffffffffffffffffffffffffffffffffffffffffffffffffff038211156107f6576107f561090a565b5b828201905092915050565b600061080c826108ca565b9150610817836108ca565b92508261082757610826610939565b5b828204905092915050565b600061083d826108ca565b9150610848836108ca565b9250817fffffffffffffffffffffffffffffffffffffffffffffffffffffffffffffffff04831182151516156108815761088061090a565b5b828202905092915050565b6000610897826108aa565b9050919050565b60008115159050919050565b600073ffffffffffffffffffffffffffffffffffffffff82169050919050565b6000819050919050565b60006108df826108e6565b9050919050565b60006108f1826108f8565b9050919050565b6000610903826108aa565b9050919050565b7f4e487b7100000000000000000000000000000000000000000000000000000000600052601160045260246000fd5b7f4e487b7100000000000000000000000000000000000000000000000000000000600052601260045260246000fd5b600080fd5b7f64732d6d6174682d6d756c2d6f766572666c6f77000000000000000000000000600082015250565b61099f8161089e565b81146109aa57600080fd5b50565b6109b6816108ca565b81146109c157600080fd5b5056fea2646970667358221220f9ba69248899de9eaeb877f9a8f905d65081ffa44132966becf7d5b4b766e95c64736f6c63430008070033",
  "immutableReferences": {},
  "source": "// SPDX-License-Identifier: MIT\npragma solidity ^0.8.7;\n\nimport \"./DappToken.sol\";\n\ncontract DappTokenSale {\n    address public admin;\n    uint256 public tokenPrice;\n\n    uint256 public tokensSold;\n\n    DappToken public tokenContract;\n\n    event Sell(address _buyer, uint256 _amount);\n\n    constructor(DappToken _tokenContract, uint256 _tokenPrice) {\n        admin = msg.sender;\n        tokenContract = _tokenContract;\n        tokenPrice = _tokenPrice;\n    }\n\n    function multiple(uint256 x, uint256 y) internal pure returns (uint256 z) {\n        require(y == 0 || (z = x * y) / y == x, \"ds-math-mul-overflow\");\n    }\n\n    function buyTokens(uint256 _numberOfTokens) public payable {\n        require(msg.value == multiple(_numberOfTokens, tokenPrice));\n        require(tokenContract.balanceOf(address(this)) >= _numberOfTokens);\n        require(tokenContract.transfer(msg.sender, _numberOfTokens));\n\n        tokensSold += _numberOfTokens;\n\n        emit Sell(msg.sender, _numberOfTokens);\n    }\n\n    function endSale() public {\n        require(msg.sender == admin);\n\n        require(\n            tokenContract.transfer(\n                admin,\n                tokenContract.balanceOf(address(this))\n            )\n        );\n\n        selfdestruct(payable(admin));\n    }\n}\n",
  "sourcePath": "/Users/mac/Documents/contracts/DappToken/contracts/DappTokenSale.sol",
  "compiler": {
    "name": "solc",
    "version": "0.8.7+commit.e28d00a7.Emscripten.clang"
  },
  "schemaVersion": "3.4.3",
  "updatedAt": "2021-09-22T19:32:11.894Z",
  "networkType": "ethereum",
  "devdoc": {
    "kind": "dev",
    "methods": {},
    "version": 1
  },
  "userdoc": {
    "kind": "user",
    "methods": {},
    "version": 1
  }
}